{
  "_format": "hh-sol-artifact-1",
  "contractName": "AaveMoneyMultiplier",
  "sourceName": "contracts/AaveMoneyMultiplier.sol",
  "abi": [
    {
      "inputs": [
        {
          "internalType": "address",
          "name": "tokenAddress",
          "type": "address"
        },
        {
          "internalType": "address",
          "name": "_addressProvider",
          "type": "address"
        },
        {
          "internalType": "address",
          "name": "incentivesControllerAddress",
          "type": "address"
        },
        {
          "internalType": "address",
          "name": "routerAddress",
          "type": "address"
        },
        {
          "internalType": "string",
          "name": "name",
          "type": "string"
        },
        {
          "internalType": "string",
          "name": "symbol",
          "type": "string"
        }
      ],
      "stateMutability": "nonpayable",
      "type": "constructor"
    },
    {
      "anonymous": false,
      "inputs": [
        {
          "indexed": true,
          "internalType": "address",
          "name": "owner",
          "type": "address"
        },
        {
          "indexed": true,
          "internalType": "address",
          "name": "spender",
          "type": "address"
        },
        {
          "indexed": false,
          "internalType": "uint256",
          "name": "value",
          "type": "uint256"
        }
      ],
      "name": "Approval",
      "type": "event"
    },
    {
      "anonymous": false,
      "inputs": [
        {
          "indexed": true,
          "internalType": "address",
          "name": "from",
          "type": "address"
        },
        {
          "indexed": true,
          "internalType": "address",
          "name": "to",
          "type": "address"
        },
        {
          "indexed": false,
          "internalType": "uint256",
          "name": "value",
          "type": "uint256"
        }
      ],
      "name": "Transfer",
      "type": "event"
    },
    {
      "inputs": [],
      "name": "ADDRESSES_PROVIDER",
      "outputs": [
        {
          "internalType": "contract ILendingPoolAddressesProvider",
          "name": "",
          "type": "address"
        }
      ],
      "stateMutability": "view",
      "type": "function"
    },
    {
      "inputs": [],
      "name": "LENDING_POOL",
      "outputs": [
        {
          "internalType": "contract ILendingPool",
          "name": "",
          "type": "address"
        }
      ],
      "stateMutability": "view",
      "type": "function"
    },
    {
      "inputs": [
        {
          "internalType": "address",
          "name": "owner",
          "type": "address"
        },
        {
          "internalType": "address",
          "name": "spender",
          "type": "address"
        }
      ],
      "name": "allowance",
      "outputs": [
        {
          "internalType": "uint256",
          "name": "",
          "type": "uint256"
        }
      ],
      "stateMutability": "view",
      "type": "function"
    },
    {
      "inputs": [
        {
          "internalType": "address",
          "name": "spender",
          "type": "address"
        },
        {
          "internalType": "uint256",
          "name": "amount",
          "type": "uint256"
        }
      ],
      "name": "approve",
      "outputs": [
        {
          "internalType": "bool",
          "name": "",
          "type": "bool"
        }
      ],
      "stateMutability": "nonpayable",
      "type": "function"
    },
    {
      "inputs": [
        {
          "internalType": "address",
          "name": "account",
          "type": "address"
        }
      ],
      "name": "balanceOf",
      "outputs": [
        {
          "internalType": "uint256",
          "name": "",
          "type": "uint256"
        }
      ],
      "stateMutability": "view",
      "type": "function"
    },
    {
      "inputs": [],
      "name": "claim",
      "outputs": [],
      "stateMutability": "nonpayable",
      "type": "function"
    },
    {
      "inputs": [],
      "name": "decimals",
      "outputs": [
        {
          "internalType": "uint8",
          "name": "",
          "type": "uint8"
        }
      ],
      "stateMutability": "view",
      "type": "function"
    },
    {
      "inputs": [
        {
          "internalType": "address",
          "name": "spender",
          "type": "address"
        },
        {
          "internalType": "uint256",
          "name": "subtractedValue",
          "type": "uint256"
        }
      ],
      "name": "decreaseAllowance",
      "outputs": [
        {
          "internalType": "bool",
          "name": "",
          "type": "bool"
        }
      ],
      "stateMutability": "nonpayable",
      "type": "function"
    },
    {
      "inputs": [
        {
          "internalType": "uint256",
          "name": "amount",
          "type": "uint256"
        }
      ],
      "name": "deposit",
      "outputs": [],
      "stateMutability": "nonpayable",
      "type": "function"
    },
    {
      "inputs": [
        {
          "internalType": "address[]",
          "name": "assets",
          "type": "address[]"
        },
        {
          "internalType": "uint256[]",
          "name": "amounts",
          "type": "uint256[]"
        },
        {
          "internalType": "uint256[]",
          "name": "premiums",
          "type": "uint256[]"
        },
        {
          "internalType": "address",
          "name": "initiator",
          "type": "address"
        },
        {
          "internalType": "bytes",
          "name": "params",
          "type": "bytes"
        }
      ],
      "name": "executeOperation",
      "outputs": [
        {
          "internalType": "bool",
          "name": "",
          "type": "bool"
        }
      ],
      "stateMutability": "nonpayable",
      "type": "function"
    },
    {
      "inputs": [
        {
          "internalType": "address",
          "name": "spender",
          "type": "address"
        },
        {
          "internalType": "uint256",
          "name": "addedValue",
          "type": "uint256"
        }
      ],
      "name": "increaseAllowance",
      "outputs": [
        {
          "internalType": "bool",
          "name": "",
          "type": "bool"
        }
      ],
      "stateMutability": "nonpayable",
      "type": "function"
    },
    {
      "inputs": [],
      "name": "name",
      "outputs": [
        {
          "internalType": "string",
          "name": "",
          "type": "string"
        }
      ],
      "stateMutability": "view",
      "type": "function"
    },
    {
      "inputs": [
        {
          "internalType": "address",
          "name": "user",
          "type": "address"
        }
      ],
      "name": "scaledBalanceOf",
      "outputs": [
        {
          "internalType": "uint256",
          "name": "",
          "type": "uint256"
        }
      ],
      "stateMutability": "view",
      "type": "function"
    },
    {
      "inputs": [],
      "name": "symbol",
      "outputs": [
        {
          "internalType": "string",
          "name": "",
          "type": "string"
        }
      ],
      "stateMutability": "view",
      "type": "function"
    },
    {
      "inputs": [],
      "name": "totalSupply",
      "outputs": [
        {
          "internalType": "uint256",
          "name": "",
          "type": "uint256"
        }
      ],
      "stateMutability": "view",
      "type": "function"
    },
    {
      "inputs": [
        {
          "internalType": "address",
          "name": "recipient",
          "type": "address"
        },
        {
          "internalType": "uint256",
          "name": "amount",
          "type": "uint256"
        }
      ],
      "name": "transfer",
      "outputs": [
        {
          "internalType": "bool",
          "name": "",
          "type": "bool"
        }
      ],
      "stateMutability": "nonpayable",
      "type": "function"
    },
    {
      "inputs": [
        {
          "internalType": "address",
          "name": "sender",
          "type": "address"
        },
        {
          "internalType": "address",
          "name": "recipient",
          "type": "address"
        },
        {
          "internalType": "uint256",
          "name": "amount",
          "type": "uint256"
        }
      ],
      "name": "transferFrom",
      "outputs": [
        {
          "internalType": "bool",
          "name": "",
          "type": "bool"
        }
      ],
      "stateMutability": "nonpayable",
      "type": "function"
    },
    {
      "inputs": [
        {
          "internalType": "uint256",
          "name": "percentage",
          "type": "uint256"
        }
      ],
      "name": "withdraw",
      "outputs": [],
      "stateMutability": "nonpayable",
      "type": "function"
    }
  ],
  "bytecode": "0x6101406040523480156200001257600080fd5b5060405162005c1938038062005c1983398181016040528101906200003891906200090a565b8181868073ffffffffffffffffffffffffffffffffffffffff1660808173ffffffffffffffffffffffffffffffffffffffff168152505060805173ffffffffffffffffffffffffffffffffffffffff16630261bf8b6040518163ffffffff1660e01b815260040160206040518083038186803b158015620000b857600080fd5b505afa158015620000cd573d6000803e3d6000fd5b505050506040513d601f19601f82011682018060405250810190620000f39190620009e4565b73ffffffffffffffffffffffffffffffffffffffff1660a08173ffffffffffffffffffffffffffffffffffffffff16815250505081600390805190602001906200013f92919062000658565b5080600490805190602001906200015892919062000658565b50505085600560006101000a81548173ffffffffffffffffffffffffffffffffffffffff021916908373ffffffffffffffffffffffffffffffffffffffff16021790555084600860006101000a81548173ffffffffffffffffffffffffffffffffffffffff021916908373ffffffffffffffffffffffffffffffffffffffff160217905550600860009054906101000a900473ffffffffffffffffffffffffffffffffffffffff1673ffffffffffffffffffffffffffffffffffffffff16630261bf8b6040518163ffffffff1660e01b815260040160206040518083038186803b1580156200024657600080fd5b505afa1580156200025b573d6000803e3d6000fd5b505050506040513d601f19601f82011682018060405250810190620002819190620009e4565b73ffffffffffffffffffffffffffffffffffffffff1660c08173ffffffffffffffffffffffffffffffffffffffff168152505060c051600960006101000a81548173ffffffffffffffffffffffffffffffffffffffff021916908373ffffffffffffffffffffffffffffffffffffffff1602179055507fffffffffffffffffffffffffffffffffffffffffffffffffffffffffffff000019600960009054906101000a900473ffffffffffffffffffffffffffffffffffffffff1673ffffffffffffffffffffffffffffffffffffffff1663c44b11f7886040518263ffffffff1660e01b815260040162000376919062000a27565b60206040518083038186803b1580156200038f57600080fd5b505afa158015620003a4573d6000803e3d6000fd5b505050506040513d601f19601f82011682018060405250810190620003ca919062000ac7565b6000015116612710620003de919062000b28565b62989680620003ee919062000b92565b6101008181525050600960009054906101000a900473ffffffffffffffffffffffffffffffffffffffff1673ffffffffffffffffffffffffffffffffffffffff166335ea6a75876040518263ffffffff1660e01b815260040162000453919062000a27565b6101806040518083038186803b1580156200046d57600080fd5b505afa15801562000482573d6000803e3d6000fd5b505050506040513d601f19601f82011682018060405250810190620004a8919062000dd6565b60e00151600660006101000a81548173ffffffffffffffffffffffffffffffffffffffff021916908373ffffffffffffffffffffffffffffffffffffffff160217905550600960009054906101000a900473ffffffffffffffffffffffffffffffffffffffff1673ffffffffffffffffffffffffffffffffffffffff166335ea6a75876040518263ffffffff1660e01b815260040162000549919062000a27565b6101806040518083038186803b1580156200056357600080fd5b505afa15801562000578573d6000803e3d6000fd5b505050506040513d601f19601f820116820180604052508101906200059e919062000dd6565b6101200151600760006101000a81548173ffffffffffffffffffffffffffffffffffffffff021916908373ffffffffffffffffffffffffffffffffffffffff1602179055508373ffffffffffffffffffffffffffffffffffffffff1660e08173ffffffffffffffffffffffffffffffffffffffff16815250508273ffffffffffffffffffffffffffffffffffffffff166101208173ffffffffffffffffffffffffffffffffffffffff168152505050505050505062000e6e565b828054620006669062000e38565b90600052602060002090601f0160209004810192826200068a5760008555620006d6565b82601f10620006a557805160ff1916838001178555620006d6565b82800160010185558215620006d6579182015b82811115620006d5578251825591602001919060010190620006b8565b5b509050620006e59190620006e9565b5090565b5b8082111562000704576000816000905550600101620006ea565b5090565b6000604051905090565b600080fd5b600080fd5b600073ffffffffffffffffffffffffffffffffffffffff82169050919050565b600062000749826200071c565b9050919050565b6200075b816200073c565b81146200076757600080fd5b50565b6000815190506200077b8162000750565b92915050565b600080fd5b600080fd5b6000601f19601f8301169050919050565b7f4e487b7100000000000000000000000000000000000000000000000000000000600052604160045260246000fd5b620007d6826200078b565b810181811067ffffffffffffffff82111715620007f857620007f76200079c565b5b80604052505050565b60006200080d62000708565b90506200081b8282620007cb565b919050565b600067ffffffffffffffff8211156200083e576200083d6200079c565b5b62000849826200078b565b9050602081019050919050565b60005b838110156200087657808201518184015260208101905062000859565b8381111562000886576000848401525b50505050565b6000620008a36200089d8462000820565b62000801565b905082815260208101848484011115620008c257620008c162000786565b5b620008cf84828562000856565b509392505050565b600082601f830112620008ef57620008ee62000781565b5b8151620009018482602086016200088c565b91505092915050565b60008060008060008060c087890312156200092a576200092962000712565b5b60006200093a89828a016200076a565b96505060206200094d89828a016200076a565b95505060406200096089828a016200076a565b94505060606200097389828a016200076a565b935050608087015167ffffffffffffffff81111562000997576200099662000717565b5b620009a589828a01620008d7565b92505060a087015167ffffffffffffffff811115620009c957620009c862000717565b5b620009d789828a01620008d7565b9150509295509295509295565b600060208284031215620009fd57620009fc62000712565b5b600062000a0d848285016200076a565b91505092915050565b62000a21816200073c565b82525050565b600060208201905062000a3e600083018462000a16565b92915050565b600080fd5b6000819050919050565b62000a5e8162000a49565b811462000a6a57600080fd5b50565b60008151905062000a7e8162000a53565b92915050565b60006020828403121562000a9d5762000a9c62000a44565b5b62000aa9602062000801565b9050600062000abb8482850162000a6d565b60008301525092915050565b60006020828403121562000ae05762000adf62000712565b5b600062000af08482850162000a84565b91505092915050565b7f4e487b7100000000000000000000000000000000000000000000000000000000600052601160045260246000fd5b600062000b358262000a49565b915062000b428362000a49565b92508282101562000b585762000b5762000af9565b5b828203905092915050565b7f4e487b7100000000000000000000000000000000000000000000000000000000600052601260045260246000fd5b600062000b9f8262000a49565b915062000bac8362000a49565b92508262000bbf5762000bbe62000b63565b5b828204905092915050565b60006fffffffffffffffffffffffffffffffff82169050919050565b62000bf18162000bca565b811462000bfd57600080fd5b50565b60008151905062000c118162000be6565b92915050565b600064ffffffffff82169050919050565b62000c338162000c17565b811462000c3f57600080fd5b50565b60008151905062000c538162000c28565b92915050565b600060ff82169050919050565b62000c718162000c59565b811462000c7d57600080fd5b50565b60008151905062000c918162000c66565b92915050565b6000610180828403121562000cb15762000cb062000a44565b5b62000cbe61018062000801565b9050600062000cd08482850162000a84565b600083015250602062000ce68482850162000c00565b602083015250604062000cfc8482850162000c00565b604083015250606062000d128482850162000c00565b606083015250608062000d288482850162000c00565b60808301525060a062000d3e8482850162000c00565b60a08301525060c062000d548482850162000c42565b60c08301525060e062000d6a848285016200076a565b60e08301525061010062000d81848285016200076a565b6101008301525061012062000d99848285016200076a565b6101208301525061014062000db1848285016200076a565b6101408301525061016062000dc98482850162000c80565b6101608301525092915050565b6000610180828403121562000df05762000def62000712565b5b600062000e008482850162000c97565b91505092915050565b7f4e487b7100000000000000000000000000000000000000000000000000000000600052602260045260246000fd5b6000600282049050600182168062000e5157607f821691505b6020821081141562000e685762000e6762000e09565b5b50919050565b60805160a05160c05160e0516101005161012051614d5062000ec9600039600081816110760152818161118601526112570152600061238c01526000610dee01526000505060006120e8015260006103c30152614d506000f3fe608060405234801561001057600080fd5b50600436106101165760003560e01c80634e71d92d116100a2578063a457c2d711610071578063a457c2d7146102f7578063a9059cbb14610327578063b4dcfc7714610357578063b6b55f2514610375578063dd62ed3e1461039157610116565b80634e71d92d1461026f57806370a0823114610279578063920f5c84146102a957806395d89b41146102d957610116565b80631da24f3e116100e95780631da24f3e146101a557806323b872dd146101d55780632e1a7d4d14610205578063313ce56714610221578063395093511461023f57610116565b80630542975c1461011b57806306fdde0314610139578063095ea7b31461015757806318160ddd14610187575b600080fd5b6101236103c1565b604051610130919061314e565b60405180910390f35b6101416103e5565b60405161014e9190613202565b60405180910390f35b610171600480360381019061016c91906132ac565b610477565b60405161017e9190613307565b60405180910390f35b61018f610495565b60405161019c9190613331565b60405180910390f35b6101bf60048036038101906101ba919061334c565b61049f565b6040516101cc9190613331565b60405180910390f35b6101ef60048036038101906101ea9190613379565b610578565b6040516101fc9190613307565b60405180910390f35b61021f600480360381019061021a91906133cc565b610670565b005b610229610d35565b6040516102369190613415565b60405180910390f35b610259600480360381019061025491906132ac565b610d3e565b6040516102669190613307565b60405180910390f35b610277610dea565b005b610293600480360381019061028e919061334c565b611607565b6040516102a09190613331565b60405180910390f35b6102c360048036038101906102be9190613541565b61164f565b6040516102d09190613307565b60405180910390f35b6102e1611f4b565b6040516102ee9190613202565b60405180910390f35b610311600480360381019061030c91906132ac565b611fdd565b60405161031e9190613307565b60405180910390f35b610341600480360381019061033c91906132ac565b6120c8565b60405161034e9190613307565b60405180910390f35b61035f6120e6565b60405161036c919061365e565b60405180910390f35b61038f600480360381019061038a91906133cc565b61210a565b005b6103ab60048036038101906103a69190613679565b612537565b6040516103b89190613331565b60405180910390f35b7f000000000000000000000000000000000000000000000000000000000000000081565b6060600380546103f4906136e8565b80601f0160208091040260200160405190810160405280929190818152602001828054610420906136e8565b801561046d5780601f106104425761010080835404028352916020019161046d565b820191906000526020600020905b81548152906001019060200180831161045057829003601f168201915b5050505050905090565b600061048b6104846125be565b84846125c6565b6001905092915050565b6000600254905090565b60006104a9610495565b6104b283611607565b600560009054906101000a900473ffffffffffffffffffffffffffffffffffffffff1673ffffffffffffffffffffffffffffffffffffffff166370a08231306040518263ffffffff1660e01b815260040161050d9190613729565b60206040518083038186803b15801561052557600080fd5b505afa158015610539573d6000803e3d6000fd5b505050506040513d601f19601f8201168201806040525081019061055d9190613759565b61056791906137b5565b610571919061383e565b9050919050565b6000610585848484612791565b6000600160008673ffffffffffffffffffffffffffffffffffffffff1673ffffffffffffffffffffffffffffffffffffffff16815260200190815260200160002060006105d06125be565b73ffffffffffffffffffffffffffffffffffffffff1673ffffffffffffffffffffffffffffffffffffffff16815260200190815260200160002054905082811015610650576040517f08c379a0000000000000000000000000000000000000000000000000000000008152600401610647906138e1565b60405180910390fd5b6106648561065c6125be565b8584036125c6565b60019150509392505050565b6000600960009054906101000a900473ffffffffffffffffffffffffffffffffffffffff1673ffffffffffffffffffffffffffffffffffffffff166335ea6a75600560009054906101000a900473ffffffffffffffffffffffffffffffffffffffff166040518263ffffffff1660e01b81526004016106ef9190613729565b6101806040518083038186803b15801561070857600080fd5b505afa15801561071c573d6000803e3d6000fd5b505050506040513d601f19601f820116820180604052508101906107409190613ba5565b602001516fffffffffffffffffffffffffffffffff169050612710821115801561076a5750600082115b6107a9576040517f08c379a00000000000000000000000000000000000000000000000000000000081526004016107a090613c45565b60405180910390fd5b60006107b433611607565b116107f4576040517f08c379a00000000000000000000000000000000000000000000000000000000081526004016107eb90613cb1565b60405180910390fd5b60006127108361080333611607565b61080d91906137b5565b610817919061383e565b90506000610823610495565b905061082f3383612a12565b60003090506000600167ffffffffffffffff81111561085157610850613906565b5b60405190808252806020026020018201604052801561087f5781602001602082028036833780820191505090505b509050600560009054906101000a900473ffffffffffffffffffffffffffffffffffffffff16816000815181106108b9576108b8613cd1565b5b602002602001019073ffffffffffffffffffffffffffffffffffffffff16908173ffffffffffffffffffffffffffffffffffffffff16815250506000600167ffffffffffffffff8111156109105761090f613906565b5b60405190808252806020026020018201604052801561093e5781602001602082028036833780820191505090505b5090506000600760009054906101000a900473ffffffffffffffffffffffffffffffffffffffff1673ffffffffffffffffffffffffffffffffffffffff166370a08231306040518263ffffffff1660e01b815260040161099e9190613729565b60206040518083038186803b1580156109b657600080fd5b505afa1580156109ca573d6000803e3d6000fd5b505050506040513d601f19601f820116820180604052508101906109ee9190613759565b90508481876109fd91906137b5565b610a07919061383e565b82600081518110610a1b57610a1a613cd1565b5b6020026020010181815250506000600660009054906101000a900473ffffffffffffffffffffffffffffffffffffffff1673ffffffffffffffffffffffffffffffffffffffff166370a08231306040518263ffffffff1660e01b8152600401610a849190613729565b60206040518083038186803b158015610a9c57600080fd5b505afa158015610ab0573d6000803e3d6000fd5b505050506040513d601f19601f82011682018060405250810190610ad49190613759565b90506000868289610ae591906137b5565b610aef919061383e565b90506000600167ffffffffffffffff811115610b0e57610b0d613906565b5b604051908082528060200260200182016040528015610b3c5781602001602082028036833780820191505090505b509050600081600081518110610b5557610b54613cd1565b5b602002602001018181525050600030905060006001905060008185604051602001610b81929190613d77565b60405160208183030381529060405290506000600960009054906101000a900473ffffffffffffffffffffffffffffffffffffffff1673ffffffffffffffffffffffffffffffffffffffff1663ab9c4b5d8c8c8c898988886040518863ffffffff1660e01b8152600401610bfb9796959493929190613f8e565b600060405180830381600087803b158015610c1557600080fd5b505af1158015610c29573d6000803e3d6000fd5b50505050610d2433600560009054906101000a900473ffffffffffffffffffffffffffffffffffffffff1673ffffffffffffffffffffffffffffffffffffffff166370a08231306040518263ffffffff1660e01b8152600401610c8c9190613729565b60206040518083038186803b158015610ca457600080fd5b505afa158015610cb8573d6000803e3d6000fd5b505050506040513d601f19601f82011682018060405250810190610cdc9190613759565b600560009054906101000a900473ffffffffffffffffffffffffffffffffffffffff1673ffffffffffffffffffffffffffffffffffffffff16612be99092919063ffffffff16565b505050505050505050505050505050565b60006012905090565b6000610de0610d4b6125be565b848460016000610d596125be565b73ffffffffffffffffffffffffffffffffffffffff1673ffffffffffffffffffffffffffffffffffffffff16815260200190815260200160002060008873ffffffffffffffffffffffffffffffffffffffff1673ffffffffffffffffffffffffffffffffffffffff16815260200190815260200160002054610ddb9190614019565b6125c6565b6001905092915050565b60007f000000000000000000000000000000000000000000000000000000000000000090506000600167ffffffffffffffff811115610e2c57610e2b613906565b5b604051908082528060200260200182016040528015610e5a5781602001602082028036833780820191505090505b509050600660009054906101000a900473ffffffffffffffffffffffffffffffffffffffff1681600081518110610e9457610e93613cd1565b5b602002602001019073ffffffffffffffffffffffffffffffffffffffff16908173ffffffffffffffffffffffffffffffffffffffff168152505060008273ffffffffffffffffffffffffffffffffffffffff16638b599f2683306040518363ffffffff1660e01b8152600401610f0b92919061406f565b60206040518083038186803b158015610f2357600080fd5b505afa158015610f37573d6000803e3d6000fd5b505050506040513d601f19601f82011682018060405250810190610f5b9190613759565b905060008373ffffffffffffffffffffffffffffffffffffffff16633111e7b38484306040518463ffffffff1660e01b8152600401610f9c9392919061409f565b602060405180830381600087803b158015610fb657600080fd5b505af1158015610fca573d6000803e3d6000fd5b505050506040513d601f19601f82011682018060405250810190610fee9190613759565b905060008473ffffffffffffffffffffffffffffffffffffffff166399248ea76040518163ffffffff1660e01b815260040160206040518083038186803b15801561103857600080fd5b505afa15801561104c573d6000803e3d6000fd5b505050506040513d601f19601f8201168201806040525081019061107091906140dd565b905060007f000000000000000000000000000000000000000000000000000000000000000090506000600560009054906101000a900473ffffffffffffffffffffffffffffffffffffffff1673ffffffffffffffffffffffffffffffffffffffff166370a08231306040518263ffffffff1660e01b81526004016110f49190613729565b60206040518083038186803b15801561110c57600080fd5b505afa158015611120573d6000803e3d6000fd5b505050506040513d601f19601f820116820180604052508101906111449190613759565b9050600560009054906101000a900473ffffffffffffffffffffffffffffffffffffffff1673ffffffffffffffffffffffffffffffffffffffff1663095ea7b37f000000000000000000000000000000000000000000000000000000000000000060006040518363ffffffff1660e01b81526004016111c4929190614145565b602060405180830381600087803b1580156111de57600080fd5b505af11580156111f2573d6000803e3d6000fd5b505050506040513d601f19601f82011682018060405250810190611216919061419a565b50600560009054906101000a900473ffffffffffffffffffffffffffffffffffffffff1673ffffffffffffffffffffffffffffffffffffffff1663095ea7b37f0000000000000000000000000000000000000000000000000000000000000000836040518363ffffffff1660e01b81526004016112949291906141c7565b602060405180830381600087803b1580156112ae57600080fd5b505af11580156112c2573d6000803e3d6000fd5b505050506040513d601f19601f820116820180604052508101906112e6919061419a565b506000600267ffffffffffffffff81111561130457611303613906565b5b6040519080825280602002602001820160405280156113325781602001602082028036833780820191505090505b509050838160008151811061134a57611349613cd1565b5b602002602001019073ffffffffffffffffffffffffffffffffffffffff16908173ffffffffffffffffffffffffffffffffffffffff1681525050600560009054906101000a900473ffffffffffffffffffffffffffffffffffffffff16816001815181106113bb576113ba613cd1565b5b602002602001019073ffffffffffffffffffffffffffffffffffffffff16908173ffffffffffffffffffffffffffffffffffffffff16815250508273ffffffffffffffffffffffffffffffffffffffff166338ed17398360018430620186a0426114259190614019565b6040518663ffffffff1660e01b815260040161144595949392919061422b565b600060405180830381600087803b15801561145f57600080fd5b505af1158015611473573d6000803e3d6000fd5b505050506040513d6000823e3d601f19601f8201168201806040525081019061149c9190614348565b50600960009054906101000a900473ffffffffffffffffffffffffffffffffffffffff1673ffffffffffffffffffffffffffffffffffffffff1663e8eda9df600560009054906101000a900473ffffffffffffffffffffffffffffffffffffffff16600560009054906101000a900473ffffffffffffffffffffffffffffffffffffffff1673ffffffffffffffffffffffffffffffffffffffff166370a08231306040518263ffffffff1660e01b81526004016115599190613729565b60206040518083038186803b15801561157157600080fd5b505afa158015611585573d6000803e3d6000fd5b505050506040513d601f19601f820116820180604052508101906115a99190613759565b3060006040518563ffffffff1660e01b81526004016115cb94939291906143c2565b600060405180830381600087803b1580156115e557600080fd5b505af11580156115f9573d6000803e3d6000fd5b505050505050505050505050565b60008060008373ffffffffffffffffffffffffffffffffffffffff1673ffffffffffffffffffffffffffffffffffffffff168152602001908152602001600020549050919050565b60008060008484810190611663919061442c565b915091506000600181111561167b5761167a613d00565b5b82600181111561168e5761168d613d00565b5b1415611aa1576000600560009054906101000a900473ffffffffffffffffffffffffffffffffffffffff1673ffffffffffffffffffffffffffffffffffffffff166370a08231306040518263ffffffff1660e01b81526004016116f19190613729565b60206040518083038186803b15801561170957600080fd5b505afa15801561171d573d6000803e3d6000fd5b505050506040513d601f19601f820116820180604052508101906117419190613759565b9050600560009054906101000a900473ffffffffffffffffffffffffffffffffffffffff1673ffffffffffffffffffffffffffffffffffffffff1663095ea7b3600960009054906101000a900473ffffffffffffffffffffffffffffffffffffffff16836040518363ffffffff1660e01b81526004016117c29291906141c7565b602060405180830381600087803b1580156117dc57600080fd5b505af11580156117f0573d6000803e3d6000fd5b505050506040513d601f19601f82011682018060405250810190611814919061419a565b50600960009054906101000a900473ffffffffffffffffffffffffffffffffffffffff1673ffffffffffffffffffffffffffffffffffffffff1663e8eda9df600560009054906101000a900473ffffffffffffffffffffffffffffffffffffffff16833060006040518563ffffffff1660e01b815260040161189994939291906143c2565b600060405180830381600087803b1580156118b357600080fd5b505af11580156118c7573d6000803e3d6000fd5b505050506000898960008181106118e1576118e0613cd1565b5b905060200201358c8c60008181106118fc576118fb613cd1565b5b9050602002013561190d9190614019565b9050600960009054906101000a900473ffffffffffffffffffffffffffffffffffffffff1673ffffffffffffffffffffffffffffffffffffffff1663a415bcad600560009054906101000a900473ffffffffffffffffffffffffffffffffffffffff168360026000306040518663ffffffff1660e01b81526004016119969594939291906144a7565b600060405180830381600087803b1580156119b057600080fd5b505af11580156119c4573d6000803e3d6000fd5b50505050600560009054906101000a900473ffffffffffffffffffffffffffffffffffffffff1673ffffffffffffffffffffffffffffffffffffffff1663095ea7b3600960009054906101000a900473ffffffffffffffffffffffffffffffffffffffff16836040518363ffffffff1660e01b8152600401611a479291906141c7565b602060405180830381600087803b158015611a6157600080fd5b505af1158015611a75573d6000803e3d6000fd5b505050506040513d601f19601f82011682018060405250810190611a99919061419a565b505050611f38565b600180811115611ab457611ab3613d00565b5b826001811115611ac757611ac6613d00565b5b1415611f375760008a8a6000818110611ae357611ae2613cd1565b5b905060200201359050600560009054906101000a900473ffffffffffffffffffffffffffffffffffffffff1673ffffffffffffffffffffffffffffffffffffffff1663095ea7b3600960009054906101000a900473ffffffffffffffffffffffffffffffffffffffff16836040518363ffffffff1660e01b8152600401611b6b9291906141c7565b602060405180830381600087803b158015611b8557600080fd5b505af1158015611b99573d6000803e3d6000fd5b505050506040513d601f19601f82011682018060405250810190611bbd919061419a565b50600960009054906101000a900473ffffffffffffffffffffffffffffffffffffffff1673ffffffffffffffffffffffffffffffffffffffff1663573ade81600560009054906101000a900473ffffffffffffffffffffffffffffffffffffffff16836002306040518563ffffffff1660e01b8152600401611c4294939291906144fa565b602060405180830381600087803b158015611c5c57600080fd5b505af1158015611c70573d6000803e3d6000fd5b505050506040513d601f19601f82011682018060405250810190611c949190613759565b50600089896000818110611cab57611caa613cd1565b5b905060200201358c8c6000818110611cc657611cc5613cd1565b5b90506020020135611cd79190614019565b9050600960009054906101000a900473ffffffffffffffffffffffffffffffffffffffff1673ffffffffffffffffffffffffffffffffffffffff166369328dec600560009054906101000a900473ffffffffffffffffffffffffffffffffffffffff16600560009054906101000a900473ffffffffffffffffffffffffffffffffffffffff1673ffffffffffffffffffffffffffffffffffffffff166370a08231306040518263ffffffff1660e01b8152600401611d959190613729565b60206040518083038186803b158015611dad57600080fd5b505afa158015611dc1573d6000803e3d6000fd5b505050506040513d601f19601f82011682018060405250810190611de59190613759565b86611df0919061453f565b306040518463ffffffff1660e01b8152600401611e0f93929190614573565b602060405180830381600087803b158015611e2957600080fd5b505af1158015611e3d573d6000803e3d6000fd5b505050506040513d601f19601f82011682018060405250810190611e619190613759565b50600560009054906101000a900473ffffffffffffffffffffffffffffffffffffffff1673ffffffffffffffffffffffffffffffffffffffff1663095ea7b3600960009054906101000a900473ffffffffffffffffffffffffffffffffffffffff16836040518363ffffffff1660e01b8152600401611ee19291906141c7565b602060405180830381600087803b158015611efb57600080fd5b505af1158015611f0f573d6000803e3d6000fd5b505050506040513d601f19601f82011682018060405250810190611f33919061419a565b5050505b5b6001925050509998505050505050505050565b606060048054611f5a906136e8565b80601f0160208091040260200160405190810160405280929190818152602001828054611f86906136e8565b8015611fd35780601f10611fa857610100808354040283529160200191611fd3565b820191906000526020600020905b815481529060010190602001808311611fb657829003601f168201915b5050505050905090565b60008060016000611fec6125be565b73ffffffffffffffffffffffffffffffffffffffff1673ffffffffffffffffffffffffffffffffffffffff16815260200190815260200160002060008573ffffffffffffffffffffffffffffffffffffffff1673ffffffffffffffffffffffffffffffffffffffff168152602001908152602001600020549050828110156120a9576040517f08c379a00000000000000000000000000000000000000000000000000000000081526004016120a09061461c565b60405180910390fd5b6120bd6120b46125be565b858584036125c6565b600191505092915050565b60006120dc6120d56125be565b8484612791565b6001905092915050565b7f000000000000000000000000000000000000000000000000000000000000000081565b612159333083600560009054906101000a900473ffffffffffffffffffffffffffffffffffffffff1673ffffffffffffffffffffffffffffffffffffffff16612c6f909392919063ffffffff16565b6000600960009054906101000a900473ffffffffffffffffffffffffffffffffffffffff1673ffffffffffffffffffffffffffffffffffffffff166335ea6a75600560009054906101000a900473ffffffffffffffffffffffffffffffffffffffff166040518263ffffffff1660e01b81526004016121d89190613729565b6101806040518083038186803b1580156121f157600080fd5b505afa158015612205573d6000803e3d6000fd5b505050506040513d601f19601f820116820180604052508101906122299190613ba5565b602001516fffffffffffffffffffffffffffffffff16905061226d33826b033b2e3c9fd0803ce80000008561225e91906137b5565b612268919061383e565b612cf8565b60003090506000600167ffffffffffffffff81111561228f5761228e613906565b5b6040519080825280602002602001820160405280156122bd5781602001602082028036833780820191505090505b509050600560009054906101000a900473ffffffffffffffffffffffffffffffffffffffff16816000815181106122f7576122f6613cd1565b5b602002602001019073ffffffffffffffffffffffffffffffffffffffff16908173ffffffffffffffffffffffffffffffffffffffff16815250506000600167ffffffffffffffff81111561234e5761234d613906565b5b60405190808252806020026020018201604052801561237c5781602001602082028036833780820191505090505b509050620f4240856103de6103e87f00000000000000000000000000000000000000000000000000000000000000006123b5919061453f565b6123bf91906137b5565b6123c991906137b5565b6123d3919061383e565b816000815181106123e7576123e6613cd1565b5b6020026020010181815250506000600167ffffffffffffffff8111156124105761240f613906565b5b60405190808252806020026020018201604052801561243e5781602001602082028036833780820191505090505b50905060008160008151811061245757612456613cd1565b5b602002602001018181525050600030905060008081600060405160200161247f92919061466d565b60405160208183030381529060405290506000600960009054906101000a900473ffffffffffffffffffffffffffffffffffffffff1673ffffffffffffffffffffffffffffffffffffffff1663ab9c4b5d898989898988886040518863ffffffff1660e01b81526004016124f99796959493929190613f8e565b600060405180830381600087803b15801561251357600080fd5b505af1158015612527573d6000803e3d6000fd5b5050505050505050505050505050565b6000600160008473ffffffffffffffffffffffffffffffffffffffff1673ffffffffffffffffffffffffffffffffffffffff16815260200190815260200160002060008373ffffffffffffffffffffffffffffffffffffffff1673ffffffffffffffffffffffffffffffffffffffff16815260200190815260200160002054905092915050565b600033905090565b600073ffffffffffffffffffffffffffffffffffffffff168373ffffffffffffffffffffffffffffffffffffffff161415612636576040517f08c379a000000000000000000000000000000000000000000000000000000000815260040161262d90614708565b60405180910390fd5b600073ffffffffffffffffffffffffffffffffffffffff168273ffffffffffffffffffffffffffffffffffffffff1614156126a6576040517f08c379a000000000000000000000000000000000000000000000000000000000815260040161269d9061479a565b60405180910390fd5b80600160008573ffffffffffffffffffffffffffffffffffffffff1673ffffffffffffffffffffffffffffffffffffffff16815260200190815260200160002060008473ffffffffffffffffffffffffffffffffffffffff1673ffffffffffffffffffffffffffffffffffffffff168152602001908152602001600020819055508173ffffffffffffffffffffffffffffffffffffffff168373ffffffffffffffffffffffffffffffffffffffff167f8c5be1e5ebec7d5bd14f71427d1e84f3dd0314c0f7b2291e5b200ac8c7c3b925836040516127849190613331565b60405180910390a3505050565b600073ffffffffffffffffffffffffffffffffffffffff168373ffffffffffffffffffffffffffffffffffffffff161415612801576040517f08c379a00000000000000000000000000000000000000000000000000000000081526004016127f89061482c565b60405180910390fd5b600073ffffffffffffffffffffffffffffffffffffffff168273ffffffffffffffffffffffffffffffffffffffff161415612871576040517f08c379a0000000000000000000000000000000000000000000000000000000008152600401612868906148be565b60405180910390fd5b61287c838383612e58565b60008060008573ffffffffffffffffffffffffffffffffffffffff1673ffffffffffffffffffffffffffffffffffffffff16815260200190815260200160002054905081811015612902576040517f08c379a00000000000000000000000000000000000000000000000000000000081526004016128f990614950565b60405180910390fd5b8181036000808673ffffffffffffffffffffffffffffffffffffffff1673ffffffffffffffffffffffffffffffffffffffff16815260200190815260200160002081905550816000808573ffffffffffffffffffffffffffffffffffffffff1673ffffffffffffffffffffffffffffffffffffffff16815260200190815260200160002060008282546129959190614019565b925050819055508273ffffffffffffffffffffffffffffffffffffffff168473ffffffffffffffffffffffffffffffffffffffff167fddf252ad1be2c89b69c2b068fc378daa952ba7f163c4a11628f55a4df523b3ef846040516129f99190613331565b60405180910390a3612a0c848484612e5d565b50505050565b600073ffffffffffffffffffffffffffffffffffffffff168273ffffffffffffffffffffffffffffffffffffffff161415612a82576040517f08c379a0000000000000000000000000000000000000000000000000000000008152600401612a79906149e2565b60405180910390fd5b612a8e82600083612e58565b60008060008473ffffffffffffffffffffffffffffffffffffffff1673ffffffffffffffffffffffffffffffffffffffff16815260200190815260200160002054905081811015612b14576040517f08c379a0000000000000000000000000000000000000000000000000000000008152600401612b0b90614a74565b60405180910390fd5b8181036000808573ffffffffffffffffffffffffffffffffffffffff1673ffffffffffffffffffffffffffffffffffffffff168152602001908152602001600020819055508160026000828254612b6b919061453f565b92505081905550600073ffffffffffffffffffffffffffffffffffffffff168373ffffffffffffffffffffffffffffffffffffffff167fddf252ad1be2c89b69c2b068fc378daa952ba7f163c4a11628f55a4df523b3ef84604051612bd09190613331565b60405180910390a3612be483600084612e5d565b505050565b612c6a8363a9059cbb60e01b8484604051602401612c089291906141c7565b604051602081830303815290604052907bffffffffffffffffffffffffffffffffffffffffffffffffffffffff19166020820180517bffffffffffffffffffffffffffffffffffffffffffffffffffffffff8381831617835250505050612e62565b505050565b612cf2846323b872dd60e01b858585604051602401612c9093929190614a94565b604051602081830303815290604052907bffffffffffffffffffffffffffffffffffffffffffffffffffffffff19166020820180517bffffffffffffffffffffffffffffffffffffffffffffffffffffffff8381831617835250505050612e62565b50505050565b600073ffffffffffffffffffffffffffffffffffffffff168273ffffffffffffffffffffffffffffffffffffffff161415612d68576040517f08c379a0000000000000000000000000000000000000000000000000000000008152600401612d5f90614b17565b60405180910390fd5b612d7460008383612e58565b8060026000828254612d869190614019565b92505081905550806000808473ffffffffffffffffffffffffffffffffffffffff1673ffffffffffffffffffffffffffffffffffffffff1681526020019081526020016000206000828254612ddb9190614019565b925050819055508173ffffffffffffffffffffffffffffffffffffffff16600073ffffffffffffffffffffffffffffffffffffffff167fddf252ad1be2c89b69c2b068fc378daa952ba7f163c4a11628f55a4df523b3ef83604051612e409190613331565b60405180910390a3612e5460008383612e5d565b5050565b505050565b505050565b6000612ec4826040518060400160405280602081526020017f5361666545524332303a206c6f772d6c6576656c2063616c6c206661696c65648152508573ffffffffffffffffffffffffffffffffffffffff16612f299092919063ffffffff16565b9050600081511115612f245780806020019051810190612ee4919061419a565b612f23576040517f08c379a0000000000000000000000000000000000000000000000000000000008152600401612f1a90614ba9565b60405180910390fd5b5b505050565b6060612f388484600085612f41565b90509392505050565b606082471015612f86576040517f08c379a0000000000000000000000000000000000000000000000000000000008152600401612f7d90614c3b565b60405180910390fd5b612f8f85613055565b612fce576040517f08c379a0000000000000000000000000000000000000000000000000000000008152600401612fc590614ca7565b60405180910390fd5b6000808673ffffffffffffffffffffffffffffffffffffffff168587604051612ff79190614d03565b60006040518083038185875af1925050503d8060008114613034576040519150601f19603f3d011682016040523d82523d6000602084013e613039565b606091505b5091509150613049828286613068565b92505050949350505050565b600080823b905060008111915050919050565b60608315613078578290506130c8565b60008351111561308b5782518084602001fd5b816040517f08c379a00000000000000000000000000000000000000000000000000000000081526004016130bf9190613202565b60405180910390fd5b9392505050565b600073ffffffffffffffffffffffffffffffffffffffff82169050919050565b6000819050919050565b600061311461310f61310a846130cf565b6130ef565b6130cf565b9050919050565b6000613126826130f9565b9050919050565b60006131388261311b565b9050919050565b6131488161312d565b82525050565b6000602082019050613163600083018461313f565b92915050565b600081519050919050565b600082825260208201905092915050565b60005b838110156131a3578082015181840152602081019050613188565b838111156131b2576000848401525b50505050565b6000601f19601f8301169050919050565b60006131d482613169565b6131de8185613174565b93506131ee818560208601613185565b6131f7816131b8565b840191505092915050565b6000602082019050818103600083015261321c81846131c9565b905092915050565b6000604051905090565b600080fd5b600080fd5b6000613243826130cf565b9050919050565b61325381613238565b811461325e57600080fd5b50565b6000813590506132708161324a565b92915050565b6000819050919050565b61328981613276565b811461329457600080fd5b50565b6000813590506132a681613280565b92915050565b600080604083850312156132c3576132c261322e565b5b60006132d185828601613261565b92505060206132e285828601613297565b9150509250929050565b60008115159050919050565b613301816132ec565b82525050565b600060208201905061331c60008301846132f8565b92915050565b61332b81613276565b82525050565b60006020820190506133466000830184613322565b92915050565b6000602082840312156133625761336161322e565b5b600061337084828501613261565b91505092915050565b6000806000606084860312156133925761339161322e565b5b60006133a086828701613261565b93505060206133b186828701613261565b92505060406133c286828701613297565b9150509250925092565b6000602082840312156133e2576133e161322e565b5b60006133f084828501613297565b91505092915050565b600060ff82169050919050565b61340f816133f9565b82525050565b600060208201905061342a6000830184613406565b92915050565b600080fd5b600080fd5b600080fd5b60008083601f84011261345557613454613430565b5b8235905067ffffffffffffffff81111561347257613471613435565b5b60208301915083602082028301111561348e5761348d61343a565b5b9250929050565b60008083601f8401126134ab576134aa613430565b5b8235905067ffffffffffffffff8111156134c8576134c7613435565b5b6020830191508360208202830111156134e4576134e361343a565b5b9250929050565b60008083601f84011261350157613500613430565b5b8235905067ffffffffffffffff81111561351e5761351d613435565b5b60208301915083600182028301111561353a5761353961343a565b5b9250929050565b600080600080600080600080600060a08a8c0312156135635761356261322e565b5b60008a013567ffffffffffffffff81111561358157613580613233565b5b61358d8c828d0161343f565b995099505060208a013567ffffffffffffffff8111156135b0576135af613233565b5b6135bc8c828d01613495565b975097505060408a013567ffffffffffffffff8111156135df576135de613233565b5b6135eb8c828d01613495565b955095505060606135fe8c828d01613261565b93505060808a013567ffffffffffffffff81111561361f5761361e613233565b5b61362b8c828d016134eb565b92509250509295985092959850929598565b60006136488261311b565b9050919050565b6136588161363d565b82525050565b6000602082019050613673600083018461364f565b92915050565b600080604083850312156136905761368f61322e565b5b600061369e85828601613261565b92505060206136af85828601613261565b9150509250929050565b7f4e487b7100000000000000000000000000000000000000000000000000000000600052602260045260246000fd5b6000600282049050600182168061370057607f821691505b60208210811415613714576137136136b9565b5b50919050565b61372381613238565b82525050565b600060208201905061373e600083018461371a565b92915050565b60008151905061375381613280565b92915050565b60006020828403121561376f5761376e61322e565b5b600061377d84828501613744565b91505092915050565b7f4e487b7100000000000000000000000000000000000000000000000000000000600052601160045260246000fd5b60006137c082613276565b91506137cb83613276565b9250817fffffffffffffffffffffffffffffffffffffffffffffffffffffffffffffffff048311821515161561380457613803613786565b5b828202905092915050565b7f4e487b7100000000000000000000000000000000000000000000000000000000600052601260045260246000fd5b600061384982613276565b915061385483613276565b9250826138645761386361380f565b5b828204905092915050565b7f45524332303a207472616e7366657220616d6f756e742065786365656473206160008201527f6c6c6f77616e6365000000000000000000000000000000000000000000000000602082015250565b60006138cb602883613174565b91506138d68261386f565b604082019050919050565b600060208201905081810360008301526138fa816138be565b9050919050565b600080fd5b7f4e487b7100000000000000000000000000000000000000000000000000000000600052604160045260246000fd5b61393e826131b8565b810181811067ffffffffffffffff8211171561395d5761395c613906565b5b80604052505050565b6000613970613224565b905061397c8282613935565b919050565b60006020828403121561399757613996613901565b5b6139a16020613966565b905060006139b184828501613744565b60008301525092915050565b60006fffffffffffffffffffffffffffffffff82169050919050565b6139e2816139bd565b81146139ed57600080fd5b50565b6000815190506139ff816139d9565b92915050565b600064ffffffffff82169050919050565b613a1f81613a05565b8114613a2a57600080fd5b50565b600081519050613a3c81613a16565b92915050565b600081519050613a518161324a565b92915050565b613a60816133f9565b8114613a6b57600080fd5b50565b600081519050613a7d81613a57565b92915050565b60006101808284031215613a9a57613a99613901565b5b613aa5610180613966565b90506000613ab584828501613981565b6000830152506020613ac9848285016139f0565b6020830152506040613add848285016139f0565b6040830152506060613af1848285016139f0565b6060830152506080613b05848285016139f0565b60808301525060a0613b19848285016139f0565b60a08301525060c0613b2d84828501613a2d565b60c08301525060e0613b4184828501613a42565b60e083015250610100613b5684828501613a42565b61010083015250610120613b6c84828501613a42565b61012083015250610140613b8284828501613a42565b61014083015250610160613b9884828501613a6e565b6101608301525092915050565b60006101808284031215613bbc57613bbb61322e565b5b6000613bca84828501613a83565b91505092915050565b7f5749544844524157204e4545445320544f204245203e203020414e44203c3d2060008201527f31303030302028302520414e4420313030252900000000000000000000000000602082015250565b6000613c2f603383613174565b9150613c3a82613bd3565b604082019050919050565b60006020820190508181036000830152613c5e81613c22565b9050919050565b7f4e4545445320544f20484156452042414c414e4345203e203000000000000000600082015250565b6000613c9b601983613174565b9150613ca682613c65565b602082019050919050565b60006020820190508181036000830152613cca81613c8e565b9050919050565b7f4e487b7100000000000000000000000000000000000000000000000000000000600052603260045260246000fd5b7f4e487b7100000000000000000000000000000000000000000000000000000000600052602160045260246000fd5b60028110613d4057613d3f613d00565b5b50565b6000819050613d5182613d2f565b919050565b6000613d6182613d43565b9050919050565b613d7181613d56565b82525050565b6000604082019050613d8c6000830185613d68565b613d996020830184613322565b9392505050565b600081519050919050565b600082825260208201905092915050565b6000819050602082019050919050565b613dd581613238565b82525050565b6000613de78383613dcc565b60208301905092915050565b6000602082019050919050565b6000613e0b82613da0565b613e158185613dab565b9350613e2083613dbc565b8060005b83811015613e51578151613e388882613ddb565b9750613e4383613df3565b925050600181019050613e24565b5085935050505092915050565b600081519050919050565b600082825260208201905092915050565b6000819050602082019050919050565b613e9381613276565b82525050565b6000613ea58383613e8a565b60208301905092915050565b6000602082019050919050565b6000613ec982613e5e565b613ed38185613e69565b9350613ede83613e7a565b8060005b83811015613f0f578151613ef68882613e99565b9750613f0183613eb1565b925050600181019050613ee2565b5085935050505092915050565b600081519050919050565b600082825260208201905092915050565b6000613f4382613f1c565b613f4d8185613f27565b9350613f5d818560208601613185565b613f66816131b8565b840191505092915050565b600061ffff82169050919050565b613f8881613f71565b82525050565b600060e082019050613fa3600083018a61371a565b8181036020830152613fb58189613e00565b90508181036040830152613fc98188613ebe565b90508181036060830152613fdd8187613ebe565b9050613fec608083018661371a565b81810360a0830152613ffe8185613f38565b905061400d60c0830184613f7f565b98975050505050505050565b600061402482613276565b915061402f83613276565b9250827fffffffffffffffffffffffffffffffffffffffffffffffffffffffffffffffff0382111561406457614063613786565b5b828201905092915050565b600060408201905081810360008301526140898185613e00565b9050614098602083018461371a565b9392505050565b600060608201905081810360008301526140b98186613e00565b90506140c86020830185613322565b6140d5604083018461371a565b949350505050565b6000602082840312156140f3576140f261322e565b5b600061410184828501613a42565b91505092915050565b6000819050919050565b600061412f61412a6141258461410a565b6130ef565b613276565b9050919050565b61413f81614114565b82525050565b600060408201905061415a600083018561371a565b6141676020830184614136565b9392505050565b614177816132ec565b811461418257600080fd5b50565b6000815190506141948161416e565b92915050565b6000602082840312156141b0576141af61322e565b5b60006141be84828501614185565b91505092915050565b60006040820190506141dc600083018561371a565b6141e96020830184613322565b9392505050565b6000819050919050565b600061421561421061420b846141f0565b6130ef565b613276565b9050919050565b614225816141fa565b82525050565b600060a0820190506142406000830188613322565b61424d602083018761421c565b818103604083015261425f8186613e00565b905061426e606083018561371a565b61427b6080830184613322565b9695505050505050565b600067ffffffffffffffff8211156142a05761429f613906565b5b602082029050602081019050919050565b60006142c46142bf84614285565b613966565b905080838252602082019050602084028301858111156142e7576142e661343a565b5b835b8181101561431057806142fc8882613744565b8452602084019350506020810190506142e9565b5050509392505050565b600082601f83011261432f5761432e613430565b5b815161433f8482602086016142b1565b91505092915050565b60006020828403121561435e5761435d61322e565b5b600082015167ffffffffffffffff81111561437c5761437b613233565b5b6143888482850161431a565b91505092915050565b60006143ac6143a76143a28461410a565b6130ef565b613f71565b9050919050565b6143bc81614391565b82525050565b60006080820190506143d7600083018761371a565b6143e46020830186613322565b6143f1604083018561371a565b6143fe60608301846143b3565b95945050505050565b6002811061441457600080fd5b50565b60008135905061442681614407565b92915050565b600080604083850312156144435761444261322e565b5b600061445185828601614417565b925050602061446285828601613297565b9150509250929050565b6000819050919050565b600061449161448c6144878461446c565b6130ef565b613276565b9050919050565b6144a181614476565b82525050565b600060a0820190506144bc600083018861371a565b6144c96020830187613322565b6144d66040830186614498565b6144e360608301856143b3565b6144f0608083018461371a565b9695505050505050565b600060808201905061450f600083018761371a565b61451c6020830186613322565b6145296040830185614498565b614536606083018461371a565b95945050505050565b600061454a82613276565b915061455583613276565b92508282101561456857614567613786565b5b828203905092915050565b6000606082019050614588600083018661371a565b6145956020830185613322565b6145a2604083018461371a565b949350505050565b7f45524332303a2064656372656173656420616c6c6f77616e63652062656c6f7760008201527f207a65726f000000000000000000000000000000000000000000000000000000602082015250565b6000614606602583613174565b9150614611826145aa565b604082019050919050565b60006020820190508181036000830152614635816145f9565b9050919050565b600061465761465261464d8461410a565b6130ef565b6133f9565b9050919050565b6146678161463c565b82525050565b60006040820190506146826000830185613d68565b61468f602083018461465e565b9392505050565b7f45524332303a20617070726f76652066726f6d20746865207a65726f2061646460008201527f7265737300000000000000000000000000000000000000000000000000000000602082015250565b60006146f2602483613174565b91506146fd82614696565b604082019050919050565b60006020820190508181036000830152614721816146e5565b9050919050565b7f45524332303a20617070726f766520746f20746865207a65726f20616464726560008201527f7373000000000000000000000000000000000000000000000000000000000000602082015250565b6000614784602283613174565b915061478f82614728565b604082019050919050565b600060208201905081810360008301526147b381614777565b9050919050565b7f45524332303a207472616e736665722066726f6d20746865207a65726f20616460008201527f6472657373000000000000000000000000000000000000000000000000000000602082015250565b6000614816602583613174565b9150614821826147ba565b604082019050919050565b6000602082019050818103600083015261484581614809565b9050919050565b7f45524332303a207472616e7366657220746f20746865207a65726f206164647260008201527f6573730000000000000000000000000000000000000000000000000000000000602082015250565b60006148a8602383613174565b91506148b38261484c565b604082019050919050565b600060208201905081810360008301526148d78161489b565b9050919050565b7f45524332303a207472616e7366657220616d6f756e742065786365656473206260008201527f616c616e63650000000000000000000000000000000000000000000000000000602082015250565b600061493a602683613174565b9150614945826148de565b604082019050919050565b600060208201905081810360008301526149698161492d565b9050919050565b7f45524332303a206275726e2066726f6d20746865207a65726f2061646472657360008201527f7300000000000000000000000000000000000000000000000000000000000000602082015250565b60006149cc602183613174565b91506149d782614970565b604082019050919050565b600060208201905081810360008301526149fb816149bf565b9050919050565b7f45524332303a206275726e20616d6f756e7420657863656564732062616c616e60008201527f6365000000000000000000000000000000000000000000000000000000000000602082015250565b6000614a5e602283613174565b9150614a6982614a02565b604082019050919050565b60006020820190508181036000830152614a8d81614a51565b9050919050565b6000606082019050614aa9600083018661371a565b614ab6602083018561371a565b614ac36040830184613322565b949350505050565b7f45524332303a206d696e7420746f20746865207a65726f206164647265737300600082015250565b6000614b01601f83613174565b9150614b0c82614acb565b602082019050919050565b60006020820190508181036000830152614b3081614af4565b9050919050565b7f5361666545524332303a204552433230206f7065726174696f6e20646964206e60008201527f6f74207375636365656400000000000000000000000000000000000000000000602082015250565b6000614b93602a83613174565b9150614b9e82614b37565b604082019050919050565b60006020820190508181036000830152614bc281614b86565b9050919050565b7f416464726573733a20696e73756666696369656e742062616c616e636520666f60008201527f722063616c6c0000000000000000000000000000000000000000000000000000602082015250565b6000614c25602683613174565b9150614c3082614bc9565b604082019050919050565b60006020820190508181036000830152614c5481614c18565b9050919050565b7f416464726573733a2063616c6c20746f206e6f6e2d636f6e7472616374000000600082015250565b6000614c91601d83613174565b9150614c9c82614c5b565b602082019050919050565b60006020820190508181036000830152614cc081614c84565b9050919050565b600081905092915050565b6000614cdd82613f1c565b614ce78185614cc7565b9350614cf7818560208601613185565b80840191505092915050565b6000614d0f8284614cd2565b91508190509291505056fea2646970667358221220c25ad2665c16910162a0ad04fcbe046288cd2f9760dc4c21d2d023b7d9604b7b64736f6c63430008090033",
  "linkReferences": {},
  "deployedLinkReferences": {}
}